:100000001EC038C037C036C035C034C033C032C05F
:1000100031C0BDC12FC02EC02DC02CC08CC12AC084
:1000200029C028C027C0EBC308C427C430C43DC4BE
:1000300059C475C48FC4ACC4B0C4BAC4CFC41124ED
:100040001FBECFE5D4E0DEBFCDBF10E0A0E6B0E03C
:10005000E8ECF2E102C005900D92A637B107D9F79E
:1000600010E0A6E7B0E001C01D92A43AB107E1F7A5
:1000700004D528C9C5CF9C01E199FECF3FBB2EBB5B
:10008000E09A8DB308959C01E199FECF3FBB2EBB52
:100090006DBB0FB6F894E29AE19A0FBE089583B350
:1000A00090E08073907024E0959587952A95E1F70C
:1000B000382F20917600213089F0213050F0223005
:1000C00019F02330A1F40FC08330A9F0882389F000
:1000D0000EC0823081F0813061F009C0882359F070
:1000E000833039F004C0813031F0823011F080E08B
:1000F00003C082E001C081E03093760008958091D2
:100100009700909198004091A300892B61F04130B5
:1001100029F480919F009091A00022C080917A00E4
:1001200090917B001DC0209182003091830041306E
:1001300029F480917E0090917F0004C080919B0003
:1001400090919C00820F931F9595879565E070E0D4
:100150005BD8CB01880F991F880F991F860F971FB7
:10016000909383008093820080919A00882341F4C9
:100170008CE08093770080937800809379000895D5
:10018000E0918200F0918300CF0164E670E03CD8FA
:100190006093770070E08CE99FEF689F9001699F02
:1001A000300D789F300D1124C9018E0F9F1F6AE01A
:1001B00070E02AD8609378002E0F86EF9FEF689F3B
:1001C000602D1124620F60937900089580919A0048
:1001D000882361F488B3817188BB19BC18BC1BBC2F
:1001E0001ABC10929E0010929D00089520919F00CD
:1001F0003091A00080917E0090917F00821793073C
:1002000040F48091A100882321F088B38171886037
:1002100002C088B3817188BB8091A100813041F018
:10022000813018F08230C9F406C019BC18BC15C062
:1002300080EB91E010C020917C0030917D0080E542
:1002400090E0AC01249FC001259F900D349F900D3C
:10025000112480559E4F99BD88BD40919B005091BF
:100260009C0020917A0030917B00CA0102972817E8
:1002700039076CF0C901841B950B4F972CF08FEF59
:1002800093E09BBD8ABD0895220F331F08C0421B17
:10029000530B4B3051051CF01BBC1ABC08953BBDE1
:1002A0002ABD0895FCDE882311F08093A2000895F2
:1002B000879910C080918C0090918D000196909349
:1002C0008D0080938C008436910599F48AE08093A8
:1002D000A2000FC080918C0090918D000B97893502
:1002E000910518F489E08093A20010928D0010927D
:1002F0008C009A9910C080918E0090918F00019689
:1003000090938F0080938E008436910599F48BE052
:100310008093A200089580918E0090918F000B979A
:100320008935910518F48CE08093A20010928F001B
:1003300010928E0008951F920F920FB60F92112403
:100340008F939F9380919900882369F481E0809333
:100350009900389A84B195B19695879590939C00B1
:1003600080939B000BC010929900389884B195B18E
:100370009695879590937F0080937E0082EA8FBD4B
:100380009F918F910F900FBE0F901F9018951F9205
:100390000F920FB60F9211242F933F934F935F93B9
:1003A0006F937F938F939F93AF93BF93EF93FF933D
:1003B000F89482B38F6782BB80919600833020F4DB
:1003C0008F5F8093960002C01092960088B3909140
:1003D0009600E92FF0E020E830E0092E02C03595C4
:1003E00027950A94E2F78F70822B88BB933009F02F
:1003F0004FC08091A300813009F046C080919A00DF
:10040000813009F041C08091A1008130A9F0813094
:1004100020F0823009F048C023C042B320917C0014
:1004200030917D002150304080E490E002C09595ED
:1004300087952A95E2F724C042B340784064209122
:100440007C0030917D002150304080E490E002C07B
:10045000959587952A95E2F78F73482B42BB24C068
:1004600042B327E030E080917C0090917D00281B12
:10047000390B8FE790E002C0880F991F2A95E2F7A9
:100480008F774078842B02C082B3807882BB0CC007
:1004900082B3E958FF4FE081F0E0E05AFF4F9081CE
:1004A0009F778078982B92BBFDDE809196008130FB
:1004B00049F0813008F464C0823091F1833009F052
:1004C000A8C081C086B326B330E090E080749070FD
:1004D00066E0959587956A95E1F728233923232BC4
:1004E00079F0809186009091870001969093870023
:1004F000809386008054964009F08BC087E02DC021
:10050000809186009091870002978E53964018F450
:1005100085E08093A200109287001092860079C037
:1005200086B326B330E090E08072907055E09595E8
:1005300087955A95E1F728233923232B89F0809159
:10054000880090918900019690938900809388009B
:100550008054964009F05DC088E08093A20059C0A5
:10056000809188009091890002978E53964018F4EC
:1005700086E08093A200109289001092880049C002
:1005800086B326B330E0881F8827881F90E0282391
:100590003923232B51F0809184009091850001969E
:1005A000909385008093840034C080918400909162
:1005B0008500029718F083E08093A20010928500D6
:1005C0001092840026C086B326B330E090E080719C
:1005D000907044E0959587954A95E1F72823392353
:1005E000232B51F080918A0090918B00019690937B
:1005F0008B0080938A000DC080918A0090918B00BF
:10060000029718F084E08093A20010928B00109261
:100610008A007894FF91EF91BF91AF919F918F9154
:100620007F916F915F914F913F912F910F900FBEEE
:100630000F901F9018950F931F93CF93DF931092F5
:100640009A0083B390E08073907074E095958795DD
:100650007A95E1F78093760080E090E06BE370E0BC
:10066000A8D58C0190937B0080937A0086E090E07F
:100670006BE370E09ED5EC019093A00080939F0007
:100680008CE090E06BE370E094D59C0190937D004A
:1006900080937C00025310400D52114030F084E6EC
:1006A00090E090937B0080937A00E297C35CD14006
:1006B00030F084E690E09093A00080939F0021505A
:1006C00030402730310530F081E090E090937D009C
:1006D00080937C008FE781BB80E882BB14BA84E3FF
:1006E00085BB8EEF87BB81E088BB8AE886B980EC4A
:1006F00087B983B7826083BF89B7816089BF82EA87
:100700008FBD82E18EBD8FEF93E097BD86BDDF91F7
:10071000CF911F910F910895CF93DF938091800027
:100720009091810001969093810080938000895878
:100730009341D0F1C0917A00D0917B0080E090E0AD
:100740006BE370E036D5C817D90731F080E090E050
:10075000BE0143E450E043D5C0919F00D091A0007A
:1007600086E090E06BE370E024D5C817D90731F03C
:1007700086E090E0BE0143E450E031D5C0917C00BA
:10078000D0917D008CE090E06BE370E012D5C8174B
:10079000D90731F08CE090E0BE0143E450E01FD572
:1007A0001092810010928000DF91CF910895282F40
:1007B000882391F084E690E09093980080939700CE
:1007C00080E090E0A0E0B0E08093920090939300EE
:1007D000A0939400B093950030919A00332321F4B4
:1007E0002A3009F049C1E0C0822F90E0FC01319726
:1007F000EC30F10508F002C1ED5EFF4F09948091E5
:10080000A300813069F480919F009091A00021E0C5
:10081000823C920710F405961FC082EC91E01CC048
:1008200080917A0090917B0021E08E35920714F43C
:10083000059653C08EE591E050C08091A3008130B1
:1008400081F480919F009091A0008135910510F076
:10085000059702C080E590E09093A00080939F00F0
:10086000CDC080917A0090917B008333910514F084
:10087000059733C082E390E030C080917C00909176
:100880007D008730910508F0B6C0019609C08091BF
:100890007C0090917D008230910508F4ACC00197F6
:1008A00090937D0080937C00A6C08091A30081304E
:1008B00079F488E090E06BE370E07BD49093A00043
:1008C00080939F008EE090E06BE370E072D41CC0D8
:1008D00082E090E06BE370E06CD490937B008093B7
:1008E0007A008CC08091A300813099F48AE090E076
:1008F0006BE370E05ED49093A00080939F0080E152
:1009000090E06BE370E055D490937D0080937C0081
:1009100075C084E090E06BE370E04BD4DECF809153
:10092000A300813081F460919F007091A00088E065
:1009300090E043E450E053D460917C0070917D00DE
:100940008EE090E021C060917A0070917B0082E09F
:1009500090E01AC08091A300813081F460919F00E3
:100960007091A0008AE090E043E450E038D46091B8
:100970007C0070917D0080E190E006C060917A007B
:1009800070917B0084E090E043E450E028D436C0CE
:100990008091A300813079F511C0313029F4109293
:1009A000A10010929A002AC081E080939A0006C0AC
:1009B0008091A100882329F01092A1001092A30039
:1009C0001DC082E08093A10081E08093A30080E7B6
:1009D00097E1909391008093900010C08091A100C6
:1009E000813019F482E08093A10080E797E1909331
:1009F00091008093900081E08093A300809190000B
:100A000090919100009731F001979093910080931D
:100A1000900007C08091A100882319F081E08093A5
:100A2000A1008091970090919800009729F001977C
:100A3000909398008093970060919200709193003A
:100A4000809194009091950020E030E040E85FE3D1
:100A5000B8D1609392007093930080939400909328
:100A6000950020E03CE742E958E4D2D1181624F47E
:100A700010929A001092A1000895DF92EF92FF92D7
:100A80000F931F93CF93DF93D6DD369A7894C0E00F
:100A9000D0E0F2E0DF2E00E117E2E0E2EE2EEEE43D
:100AA000FE2E8091A20083DE1092A20001DC27DBE3
:100AB0002196C530D1055CF0DFBCC8010197F1F784
:100AC000369AC8010197F1F781DBC0E0D0E024DE5F
:100AD000C7010197F1F7E5CFA0E0B0E0E1E7F5E06D
:100AE000BAC3DC012B01FA019C91923008F439C1A0
:100AF000EB018881823008F433C1943069F484308A
:100B000009F02FC111969C9111978981981709F4CA
:100B100028C1AEE6B0E025C1843009F421C182309D
:100B2000A9F4923009F01DC19A01AD0188E0EA01F3
:100B30000990AE01E90109929E018150C1F7E201DD
:100B4000898111969C918923818308C1923009F48F
:100B500007C112962D903C901397EB018A819B81DF
:100B60001496AD90BD90CD90DC901797EC80FD80F1
:100B70000E811F819101281B390BB90137FF04C079
:100B800066277727621B730B603271050CF061C01A
:100B9000121613066CF537014801062E04C0969410
:100BA0008794779467940A94D2F721E030E040E08C
:100BB00050E004C0220F331F441F551F6A95D2F71F
:100BC00021503040404050402E213F2140235123AE
:100BD000211531054105510521F021E030E040E0CB
:100BE00050E079018A01E628F728082919293CC034
:100BF000232BD1F1260E371E35014601062E04C0E7
:100C000096948794779467940A94D2F721E030E021
:100C100040E050E004C0220F331F441F551F6A9567
:100C2000D2F721503040404050402A213B214C21F6
:100C30005D21211531054105510521F021E030E00C
:100C400040E050E059016A01A628B728C828D928F1
:100C50000BC0821593052CF01C01AA24BB2465014E
:100C600003C0EE24FF24870111969C91D2011196B6
:100C70008C91981709F445C0992339F0A801970180
:100C80002A193B094C095D0906C0A60195012E19D8
:100C90003F09400B510B57FD08C01182338222825D
:100CA00024833583468357831DC081E0818333824B
:100CB000228288279927DC01821B930BA40BB50B9A
:100CC00084839583A683B7830DC0220F331F441FEF
:100CD000551F2483358346835783828193810197EF
:100CE000938382832481358146815781DA01C9014A
:100CF0000197A109B1098F5F9F4FAF4FBF4328F301
:100D00000BC0918333822282EA0CFB1C0C1D1D1D3B
:100D1000E482F5820683178383E080832481358112
:100D20004681578157FF1AC0C901AA2797FDA09590
:100D3000BA2F81709070A070B07056954795379516
:100D40002795822B932BA42BB52B84839583A68385
:100D5000B78382819381019693838283DF0101C0EF
:100D6000D201CD01CDB7DEB7E2E191C2A0E2B0E0A1
:100D7000EBEBF6E07CC269837A838B839C832D83C3
:100D80003E834F835887E9E0EE2EF12CEC0EFD1EDA
:100D9000CE010196B7013CD18E010F5E1F4FCE01EF
:100DA0000596B80135D18A8991E089278A8BC701D8
:100DB000B801AE01475E5F4F8FDE55D0A096E6E0EA
:100DC00072C2A0E2B0E0E6EEF6E051C269837A8337
:100DD0008B839C832D833E834F835887F9E0EF2ECE
:100DE000F12CEC0EFD1ECE010196B70111D18E0142
:100DF0000F5E1F4FCE010596B8010AD1C701B80199
:100E0000AE01475E5F4F68DE2ED0A096E6E04BC293
:100E1000A8E1B0E0EDE0F7E02AC269837A838B8332
:100E20009C832D833E834F83588789E0E82EF12CE5
:100E3000EC0EFD1ECE010196B701EAD08E010F5EC9
:100E40001F4FCE010596B801E3D08985823038F076
:100E50008989823020F0C701B80152D101C08FEFDB
:100E60006896E6E020C2DF92EF92FF920F931F9305
:100E7000FC01E480F58006811781D1808081823079
:100E800048F480E090E0A0E1B0E0E82AF92A0A2BDB
:100E90001B2BA5C0843009F49FC0823021F4EE24BE
:100EA000FF24870105C0E114F1040105110519F4BF
:100EB000E0E0F0E096C0628173819FEF62387907CD
:100EC0000CF05BC022E83FEF261B370B2A313105BF
:100ED0002CF020E030E040E050E02AC0B801A7014B
:100EE000022E04C076956795579547950A94D2F7D8
:100EF00081E090E0A0E0B0E004C0880F991FAA1F35
:100F0000BB1F2A95D2F70197A109B1098E219F2114
:100F1000A023B1230097A105B10521F081E090E065
:100F2000A0E0B0E09A01AB01282B392B4A2B5B2BB8
:100F3000DA01C9018F779070A070B070803491058C
:100F4000A105B10539F427FF09C0205C3F4F4F4F81
:100F50005F4F04C0215C3F4F4F4F5F4FE0E0F0E038
:100F60002030A0E03A07A0E04A07A0E45A0710F0BA
:100F7000E1E0F0E079018A0127C06038710564F58D
:100F8000FB01E158FF4FD801C7018F779070A07027
:100F9000B07080349105A105B10539F4E7FE0DC0AC
:100FA00080E490E0A0E0B0E004C08FE390E0A0E037
:100FB000B0E0E80EF91E0A1F1B1F17FF05C01695AB
:100FC0000795F794E794319687E016950795F7947F
:100FD000E7948A95D1F705C0EE24FF248701EFEF4F
:100FE000F0E06E2F679566276795902F9F77D794CF
:100FF000DD24D7948E2F8695492F462B582F5D29B7
:10100000B701CA011F910F91FF90EF90DF900895F3
:10101000FC01DB01408151812281622F6F7770E0FA
:10102000221F2227221F9381892F880F822B282F8E
:1010300030E0991F9927991F11969C9311972115BC
:101040003105A9F5411551056105710511F482E0DD
:1010500037C082E89FEF13969C938E9312979A0164
:10106000AB0167E0220F331F441F551F6A95D1F76C
:1010700083E08C930DC0220F331F441F551F12961F
:101080008D919C911397019713969C938E93129731
:10109000203080E0380780E0480780E4580758F3A4
:1010A00014962D933D934D935C93179708952F3F7E
:1010B000310579F4411551056105710519F484E094
:1010C0008C93089564FF03C081E08C9312C01C923E
:1010D00010C02F57304013963C932E93129783E005
:1010E0008C9387E0440F551F661F771F8A95D1F7B1
:1010F000706414964D935D936D937C931797089548
:101100001F93DC01FB019C91923008F447C0808161
:10111000823008F443C0943051F411961C9184300D
:1011200099F58181682F70E0611B71093FC084309F
:1011300021F0923031F48230B9F18181882389F134
:101140002DC011961C9111978230F1F081811817F2
:10115000D9F412962D913C91139782819381821735
:10116000930794F028173907BCF014968D919D9140
:101170000D90BC91A02D248135814681578128177F
:1011800039074A075B0718F4112341F00AC0821798
:101190009307A407B50740F4112319F061E070E04C
:1011A00005C06FEF7FEF02C060E070E0CB011F91E0
:1011B0000895DF92EF92FF920F931F937B018C01B2
:1011C000FB010995D82EC8010196F7010995982FC2
:1011D0008D2D1F910F91FF90EF90DF900895DF927A
:1011E000EF92FF920F931F93D72E7A018C01FA0191
:1011F0000995C80101966D2DF70109951F910F9171
:10120000FF90EF90DF90089597FB092E07260AD0F4
:1012100077FD04D00CD006D000201AF470956195AB
:101220007F4F0895F6F7909581959F4F0895AA1BDB
:10123000BB1B51E107C0AA1FBB1FA617B70710F0C1
:10124000A61BB70B881F991F5A95A9F780959095F3
:10125000BC01CD0108952F923F924F925F926F9201
:101260007F928F929F92AF92BF92CF92DF92EF9236
:10127000FF920F931F93CF93DF93CDB7DEB7CA1BB7
:10128000DB0B0FB6F894DEBF0FBECDBF09942A88E2
:10129000398848885F846E847D848C849B84AA848A
:1012A000B984C884DF80EE80FD800C811B81AA8117
:1012B000B981CE0FD11D0FB6F894DEBF0FBECDBFE2
:0812C000ED010895F894FFCF41
:1012C8003F065B4F666D7D077F6F79504071000068
:0612D80000000000000010
:00000001FF
