S0180000536F6C646572696E6753746174696F6E2E7372656383
S11300000C9434000C9451000C9451000C94510045
S11300100C9451000C9451000C9451000C94510018
S11300200C9451000C9451000C9451000C94510008
S11300300C9451000C945E020C9451000C945100E9
S11300400C9451000C9451000C9451000C945100E8
S11300500C9451000C9451000C9451000C945100D8
S11300600C9451000C94510011241FBECFEFD8E022
S1130070DEBFCDBF11E0A0E0B1E0E0E9FEE002C0E8
S113008005900D92A234B107D9F721E0A2E4B1E0C2
S113009001C01D92A739B207E1F70E9436030C9400
S11300A046070C940000CF93DF9300D000D0CDB767
S11300B0DEB769837A838B839C8389819A81AB8140
S11300C0BC81880F991FAA1FBB1F880F991FAA1FE5
S11300D0BB1F880F991FAA1FBB1F880F991FAA1F38
S11300E0BB1F89839A83AB83BC8389819A81AB814B
S11300F0BC81892B8A2B8B2B99F089819A81AB81C6
S1130100BC810197A109B10989839A83AB83BC831C
S113011089819A81AB81BC81892B8A2B8B2B69F7CE
S11301200F900F900F900F90DF91CF9108955B9AED
S113013061E070E080E090E00E9453005B980895D5
S1130140882314F45F9A01C05F9886FF02C05E9A08
S113015001C05E9885FF02C05D9A01C05D9884FF6E
S113016002C05C9A08955C98089583FF02C05F9A68
S113017001C05F9882FF02C05E9A01C05E9881FF51
S113018002C05D9A01C05D9880FF02C05C9A089528
S11301905C980895CF93C82F0E94A0000E949700F6
S11301A08C2F0E94B5000E94970065E070E080E00B
S11301B090E00E945300CF910895289881E00E9416
S11301C0CA0068EC70E080E090E00E94530008955B
S11301D0289882E00E94CA0068EC70E080E090E019
S11301E00E945300089528988C3319F08E3329F017
S11301F0089580E10E94CA00089584E10E94CA0023
S1130200089528988330A9F028F4813041F0823091
S113021059F00895843091F08530A9F00895862F1F
S113022080680E94CA000895862F806C0E94CA00CC
S11302300895862F80690E94CA000895862F806DD4
S11302400E94CA000895862F80640E94CA000895FF
S113025028980E94CA000895289A0E94CA0061E062
S113026070E080E090E00E9453000895CF93DF9304
S1130270EC018881882309F121968A3029F460E011
S113028082E00E94010116C08D3019F40E94E8003A
S113029011C0893069F48EE30E94F3008EE30E945A
S11302A0F3008EE30E94F3008EE30E94F30002C089
S11302B00E942C0189918111E0CFDF91CF910895A3
S11302C00F931F93CF93DF938C01660F660F660F16
S11302D085E00E940101E801085F1F4F89910E9497
S11302E02C01C017D107D1F760E081E00E94010121
S11302F0DF91CF911F910F9108954F925F926F926A
S11303007F928F929F92AF92BF92CF92DF92EF92A1
S1130310FF924B015C0199235CF48DE20E942C0155
S1130320B094A09490948094811C911CA11CB11C45
S11303308AE088169104A104B1040CF46BC0C12CAA
S1130340D12C7601C394CC0CDD1CEE1CFF1CD70110
S1130350C601880F991FAA1FBB1F880F991FAA1FC8
S1130360BB1FC80ED91EEA1EFB1EC501B401A7019E
S113037096010E9413072A303105410551051CF7E7
S113038080E3820F0E942C01C701B6012AE030E00D
S113039040E050E00E94130769017A011216130627
S11303A014061506DCF50F2EFAE04F2E512C612CA5
S11303B0712CF02DB701A601440F551F661F771F3E
S11303C0DB01CA01880F991FAA1FBB1F880F991F41
S11303D0AA1FBB1F9A01AB01280F391F4A1F5B1FBD
S11303E0C501B4010E941307A70196010E941307D7
S11303F080E3820F0E942C01C701B601A301920180
S11304000E94130769017A011216130614061506D1
S11304108CF204C080E3880D0E942C01FF90EF90C1
S1130420DF90CF90BF90AF909F908F907F906F9010
S11304305F904F900895289888E20E94A0000E943F
S1130440970065E070E080E090E00E9453000E9415
S1130450970065E070E080E090E00E94530088E23D
S11304600E94B5000E94970065E070E080E090E093
S11304700E9453008CE00E94280186E00E9428011B
S11304800E94DD000E94E8000895806480937C004F
S113049085E38A95F1F70000EAE7F0E08081806463
S11304A08083808184FFFDCFEAE7F0E08081806172
S11304B08083809178009091790008951F920F9223
S11304C00FB60F9211242F933F934F935F936F9323
S11304D07F938F939F93AF93BF938BE0809385001B
S11304E08CED809384008091510190915201893C5C
S11304F0910504F120914201309143012F5F3F4F58
S11305003093430120934201C9016CE370E00E94DF
S1130510DD06709354016093530144EC4603C0011B
S1130520479F900D1124280F391F309356012093B3
S113053055010CC0109243011092420110925401D3
S1130540109253011092560110925501BF91AF9130
S11305509F918F917F916F915F914F913F912F91D7
S11305600F900FBE0F901F9018952F923F924F92AD
S11305705F926F927F928F929F92AF92BF92CF922F
S1130580DF92EF92FF920F931F93CF93DF93F82F95
S1130590E92FEB018A019A01220F331F220F331F27
S11305A0B901640F751FCE010E94DD063B011B01DA
S11305B0CE01B8010E94DD06101611060CF043C0EE
S11305C07B015301AA0CBB1CAA0CBB1C6501C60C05
S11305D0D71C2301440C551C640C751CF194E19444
S11305E0F108CF2FDE2F812C912CCC15DD0524F0C2
S11305F085E00E942C011FC0CA15DB0524F084E0AD
S11306000E942C0118C0C615D70524F083E00E946F
S11306102C0111C0C415D50524F082E00E942C01E0
S11306200AC0C215D30524F081E00E942C0103C046
S113063080E00E942C018FEF881A980ACE0DDF1DEE
S11306408016910691F6DF91CF911F910F91FF9043
S1130650EF90DF90CF90BF90AF909F908F907F905E
S11306606F905F904F903F902F9008958FE084B9E2
S113067015B817B884E088B998EF9AB91BB814BCB8
S113068015BC16BC17BC18BC109280008093810066
S11306908BE0809385008CED80938400109287001A
S11306A010928600109289001092880010928B009C
S11306B010928A001092B60083E88093B00081E023
S11306C08093B1001092B2001092B3001092B40063
S11306D010926E0080936F001092700087E38093F5
S11306E07E0080E480937C0084E880937A001092FA
S11306F07B002A980E941B0260E088E291E00E943D
S1130700600161E080E291E00E94600162E088E1C2
S113071091E00E94600163E080E191E00E94600149
S113072064E088E091E00E94600165E080E091E08F
S11307300E946001789410924B0110924A01C3EB1D
S1130740D0E01FEF81E00E94450290935201809314
S1130750510180E00E944502BC0180E090E00E94CB
S1130760E20520E030E040E05FE30E9470060E9472
S1130770AC0570934F0160934E012A9B0AC02A98DE
S113078084E00E94450290934901809348012A9A8B
S113079007C084E00E944502909349018093480178
S11307A06091480170914901072E000C880B990B48
S11307B00E94E4052CEE31E548E35FE30E947006F5
S11307C020E030E042E652E40E94CE040E94AC05F0
S11307D09B0170934901609348018091510190916C
S11307E05201883C91055CF42A98809148019091CB
S11307F04901CD9714F0188331C018822FC04A994B
S11308000DC08091440190914501853091059CF47F
S1130810019690934501809344010DC08091440159
S1130820909145018C3F4FEF94072CF001979093E2
S113083045018093440180914E0190914F01909322
S11308404D0180934C018233910514F42A9806C01B
S11308502817390714F42A9A01C02A9860E081E025
S11308600E94010160914E0170914F01072E000C0E
S1130870880B990B0E947D0180E391E00E94360170
S11308806091480170914901072E000C880B990B67
S11308900E947D0186E391E00E943601609153013C
S11308A070915401072E000C880B990B0E947D0156
S11308B084E391E00E9436016091550170915601E4
S11308C0072E000C880B990B0E947D0180E491E0B7
S11308D00E94360160E082E00E94010160915101B2
S11308E070915201683C71052CF48BE391E00E94F5
S11308F0360138C0685C7109072E000C880B990B0F
S11309000E94E4052AE037ED43E051E40E943A05F1
S11309100E94AC056B01770FEE08FF08C701B60112
S11309200E947D018FE391E00E943601C701B60168
S11309300E94E4052AE037ED43EA5FE30E94700673
S113094020E030E040E053E40E94CE040E94AC0575
S11309507093470160934601288130E026173707DA
S113096009F0688364E082E00E94010188818823A1
S11309704CF04AE050E060E870E080E090E00E94D3
S1130980B502E0CE888190E04AE050E060E870E093
S1130990805891090E94B502D5CE5058BB27AA278A
S11309A00E94E5040C9436060E94280638F00E9442
S11309B02F0620F039F49F3F19F426F40C942506F1
S11309C00EF4E095E7FB0C941F06E92F0E944706FE
S11309D058F3BA17620773078407950720F079F470
S11309E0A6F50C9469060EF4E0950B2EBA2FA02DF3
S11309F00B01B90190010C01CA01A0011124FF27C8
S1130A00591B99F0593F50F4503E68F11A16F040C2
S1130A10A22F232F342F4427585FF3CF46953795C1
S1130A202795A795F0405395C9F77EF41F16BA0B86
S1130A30620B730B840BBAF09150A1F0FF0FBB1F34
S1130A40661F771F881FC2F70EC0BA0F621F731F7D
S1130A50841F48F4879577956795B795F7959E3FDA
S1130A6008F0B0CF9395880F08F09927EE0F97956B
S1130A70879508950E944E050C9436060E942F0611
S1130A8058F00E94280640F029F45F3F29F00C94A6
S1130A901F0651110C946A060C9425060E94470601
S1130AA068F39923B1F3552391F3951B550BBB2799
S1130AB0AA2762177307840738F09F5F5F4F220FDE
S1130AC0331F441FAA1FA9F335D00E2E3AF0E0E8D5
S1130AD032D091505040E695001CCAF72BD0FE2F1F
S1130AE029D0660F771F881FBB1F261737074807B3
S1130AF0AB07B0E809F0BB0B802DBF01FF2793586B
S1130B005F4F3AF09E3F510578F00C941F060C9409
S1130B106A065F3FE4F3983ED4F38695779567952C
S1130B20B795F7959F5FC9F7880F911D969587959F
S1130B3097F90895E1E0660F771F881FBB1F6217BE
S1130B4073078407BA0720F0621B730B840BBA0B7C
S1130B50EE1F88F7E09508950E94B3056894B111DB
S1130B600C946A0608950E944F0688F09F5798F0E7
S1130B70B92F9927B751B0F0E1F0660F771F881F9E
S1130B80991F1AF0BA95C9F714C0B13091F00E94B8
S1130B906906B1E008950C946906672F782F8827B9
S1130BA0B85F39F0B93FCCF3869577956795B395DF
S1130BB0D9F73EF490958095709561957F4F8F4F4E
S1130BC09F4F0895E89409C097FB3EF49095809553
S1130BD0709561957F4F8F4F9F4F9923A9F0F92FFF
S1130BE096E9BB279395F695879577956795B7957D
S1130BF0F111F8CFFAF4BB0F11F460FF1BC06F5F63
S1130C007F4F8F4F9F4F16C0882311F096E911C074
S1130C10772321F09EE8872F762F05C0662371F095
S1130C2096E8862F70E060E02AF09A95660F771FA9
S1130C30881FDAF7880F9695879597F9089597F99D
S1130C409F6780E870E060E008959FEF80EC08956E
S1130C5000240A9416161706180609060895002497
S1130C600A9412161306140605060895092E039411
S1130C70000C11F4882352F0BB0F40F4BF2B11F485
S1130C8060FF04C06F5F7F4F8F4F9F4F089557FDE4
S1130C909058440F551F59F05F3F71F04795880FE6
S1130CA097FB991F61F09F3F79F08795089512167D
S1130CB013061406551FF2CF4695F1DF08C0161629
S1130CC017061806991FF1CF8695710561050894DA
S1130CD00895E894BB2766277727CB0197F90895F1
S1130CE00E9483060C9436060E94280638F00E945F
S1130CF02F0620F0952311F00C941F060C94250662
S1130D0011240C946A060E94470670F3959FC1F360
S1130D10950F50E0551F629FF001729FBB27F00DA5
S1130D20B11D639FAA27F00DB11DAA1F649F6627FA
S1130D30B00DA11D661F829F2227B00DA11D621F49
S1130D40739FB00DA11D621F839FA00D611D221F03
S1130D50749F3327A00D611D231F849F600D211DE7
S1130D60822F762F6A2F11249F5750409AF0F1F06A
S1130D7088234AF0EE0FFF1FBB1F661F771F881FD3
S1130D8091505040A9F79E3F510580F00C941F06E6
S1130D900C946A065F3FE4F3983ED4F38695779506
S1130DA06795B795F795E7959F5FC1F7FE2B880F79
S1130DB0911D9695879597F9089597FB072E16F43C
S1130DC0009407D077FD09D00E94320707FC05D0B4
S1130DD03EF4909581959F4F0895709561957F4F4E
S1130DE00895A1E21A2EAA1BBB1BFD010DC0AA1F68
S1130DF0BB1FEE1FFF1FA217B307E407F50720F080
S1130E00A21BB30BE40BF50B661F771F881F991FFA
S1130E101A9469F760957095809590959B01AC0143
S1130E20BD01CF010895052E97FB1EF400940E9486
S1130E302A0757FD07D00E94F10607FC03D04EF4A1
S1130E400C942A0750954095309521953F4F4F4F6C
S1130E505F4F089590958095709561957F4F8F4F62
S1130E609F4F0895AA1BBB1B51E107C0AA1FBB1FBC
S1130E70A617B70710F0A61BB70B881F991F5A9522
S1130E80A9F780959095BC01CD010895F894FFCF02
S1130E901F1F1F1F1F1F1F001F1E1E1E1E1E1F00A1
S1130EA01F1C1C1C1C1C1F001F1C1818181C1F00B6
S1130EB01F14101010141F001F04000000041F0052
S1130EC0432020523A004320543A004F464600251E
S1050ED02000FC
S9030000FC
