S0180000536F6C646572696E6753746174696F6E2E7372656383
S11300000C9434000C9451000C9451000C94510045
S11300100C9451000C9451000C9451000C94510018
S11300200C9451000C9451000C9451000C94510008
S11300300C9451000C945E020C9451000C945100E9
S11300400C9451000C9451000C9451000C945100E8
S11300500C9451000C9451000C9451000C945100D8
S11300600C9451000C94510011241FBECFEFD8E022
S1130070DEBFCDBF11E0A0E0B1E0E8EAFDE002C0E0
S113008005900D92A234B107D9F721E0A2E4B1E0C2
S113009001C01D92A135B207E1F70E94FC020C9445
S11300A0D2060C940000CF93DF9300D000D0CDB7DC
S11300B0DEB769837A838B839C8389819A81AB8140
S11300C0BC81880F991FAA1FBB1F880F991FAA1FE5
S11300D0BB1F880F991FAA1FBB1F880F991FAA1F38
S11300E0BB1F89839A83AB83BC8389819A81AB814B
S11300F0BC81892B8A2B8B2B99F089819A81AB81C6
S1130100BC810197A109B10989839A83AB83BC831C
S113011089819A81AB81BC81892B8A2B8B2B69F7CE
S11301200F900F900F900F90DF91CF9108955B9AED
S113013061E070E080E090E00E9453005B980895D5
S1130140882314F45F9A01C05F9886FF02C05E9A08
S113015001C05E9885FF02C05D9A01C05D9884FF6E
S113016002C05C9A08955C98089583FF02C05F9A68
S113017001C05F9882FF02C05E9A01C05E9881FF51
S113018002C05D9A01C05D9880FF02C05C9A089528
S11301905C980895CF93C82F0E94A0000E949700F6
S11301A08C2F0E94B5000E94970065E070E080E00B
S11301B090E00E945300CF910895289881E00E9416
S11301C0CA0068EC70E080E090E00E94530008955B
S11301D0289882E00E94CA0068EC70E080E090E019
S11301E00E945300089528988C3319F08E3329F017
S11301F0089580E10E94CA00089584E10E94CA0023
S1130200089528988330A9F028F4813041F0823091
S113021059F00895843091F08530A9F00895862F1F
S113022080680E94CA000895862F806C0E94CA00CC
S11302300895862F80690E94CA000895862F806DD4
S11302400E94CA000895862F80640E94CA000895FF
S113025028980E94CA000895289A0E94CA0061E062
S113026070E080E090E00E9453000895CF93DF9304
S1130270EC018881882309F121968A3029F460E011
S113028082E00E94010116C08D3019F40E94E8003A
S113029011C0893069F48EE30E94F3008EE30E945A
S11302A0F3008EE30E94F3008EE30E94F30002C089
S11302B00E942C0189918111E0CFDF91CF910895A3
S11302C00F931F93CF93DF938C01660F660F660F16
S11302D085E00E940101E801085F1F4F89910E9497
S11302E02C01C017D107D1F760E081E00E94010121
S11302F0DF91CF911F910F9108954F925F926F926A
S11303007F928F929F92AF92BF92CF92DF92EF92A1
S1130310FF924B015C0199235CF48DE20E942C0155
S1130320B094A09490948094811C911CA11CB11C45
S11303308AE088169104A104B1040CF46BC0C12CAA
S1130340D12C7601C394CC0CDD1CEE1CFF1CD70110
S1130350C601880F991FAA1FBB1F880F991FAA1FC8
S1130360BB1FC80ED91EEA1EFB1EC501B401A7019E
S113037096010E949F062A303105410551051CF75C
S113038080E3820F0E942C01C701B6012AE030E00D
S113039040E050E00E949F0669017A01121613069C
S11303A014061506DCF50F2EFAE04F2E512C612CA5
S11303B0712CF02DB701A601440F551F661F771F3E
S11303C0DB01CA01880F991FAA1FBB1F880F991F41
S11303D0AA1FBB1F9A01AB01280F391F4A1F5B1FBD
S11303E0C501B4010E949F06A70196010E949F06C1
S11303F080E3820F0E942C01C701B601A301920180
S11304000E949F0669017A01121613061406150646
S11304108CF204C080E3880D0E942C01FF90EF90C1
S1130420DF90CF90BF90AF909F908F907F906F9010
S11304305F904F900895289888E20E94A0000E943F
S1130440970065E070E080E090E00E9453000E9415
S1130450970065E070E080E090E00E94530088E23D
S11304600E94B5000E94970065E070E080E090E093
S11304700E9453008CE00E94280186E00E9428011B
S11304800E94DD000E94E8000895806480937C004F
S113049085E38A95F1F70000EAE7F0E08081806463
S11304A08083808184FFFDCFEAE7F0E08081806172
S11304B08083809178009091790008951F920F9223
S11304C00FB60F9211248F939F938BE08093850036
S11304D08CED8093840080914201909143010196B8
S11304E090934301809342019F918F910F900FBE8F
S11304F00F901F9018952F923F924F925F926F9298
S11305007F928F929F92AF92BF92CF92DF92EF929F
S1130510FF920F931F93CF93DF93F82FE92FEB01F3
S11305208A019A01220F331F220F331FB901640F6E
S1130530751FCE010E9469063B011B01CE01B80163
S11305400E946906101611060CF043C07B0153018A
S1130550AA0CBB1CAA0CBB1C6501C60CD71C23012E
S1130560440C551C640C751CF194E194F108CF2FD4
S1130570DE2F812C912CCC15DD0524F085E00E9422
S11305802C011FC0CA15DB0524F084E00E942C0155
S113059018C0C615D70524F083E00E942C0111C0B1
S11305A0C415D50524F082E00E942C010AC0C215AE
S11305B0D30524F081E00E942C0103C080E00E9456
S11305C02C018FEF881A980ACE0DDF1D8016910634
S11305D091F6DF91CF911F910F91FF90EF90DF90F3
S11305E0CF90BF90AF909F908F907F906F905F90CF
S11305F04F903F902F9008958FE084B915B817B8A5
S113060084E088B998EF9AB91BB814BC15BC16BC21
S113061017BC18BC10928000809381008BE08093FB
S113062085008CED809384001092870010928600E0
S1130630109289001092880010928B0010928A0008
S11306401092B60083E88093B00083E08093B100F9
S11306501092B2008FEF8093B3001092B400109206
S11306606E0081E080936F001092700087E38093A6
S11306707E0080E480937C0084E880937A0010926A
S11306807B002A980E941B0260E088E291E00E94AD
S1130690600161E080E291E00E94600162E088E133
S11306A091E00E94600163E080E191E00E946001BA
S11306B064E088E091E00E94600165E080E091E000
S11306C00E946001789402E310E0C3EBD0E0FF24C1
S11306D0FA9481E00E9445029093500180934F0167
S11306E080E00E94450290934D0180934C0184E088
S11306F00E944502909349018093480120914F0143
S113070030915001283C31055CF42A9880914801CD
S113071090914901C39714F0F8823EC018823CC0FE
S11307204A990EC02091440130914501253031058C
S1130730ACF42F5F3F4F30934501209344010EC02A
S113074020914401309145012C3F4FEF340734F0A0
S113075021503109309345012093440120914401F3
S113076030914501121613062CF410934B0100939B
S11307704A0108C020914C0130914D0130934B0146
S113078020934A0120914A0130914B01821793072B
S113079014F42A9A01C02A9860E081E00E940101C1
S11307A060914C0170914D01072E000C880B990B40
S11307B00E947D0180E391E00E943601609148012E
S11307C070914901072E000C880B990B0E947D0142
S11307D086E391E00E9436016091420170914301E9
S11307E0072E000C880B990B0E947D0160E082E0CB
S11307F00E94010160914F0170915001683C7105A4
S11308002CF48BE391E00E94360138C0685C7109D6
S1130810072E000C880B990B0E9470052AE037ED17
S113082043E051E40E94C6040E9438054B01770F4F
S1130830AA08BB08C501B4010E947D018FE391E0C1
S11308400E943601C501B4010E9470052AE037ED0B
S113085043EA5FE30E94FC0520E030E040E053E41B
S11308600E945A040E943805709347016093460120
S1130870288130E02617370709F0688364E082E0B6
S11308800E940101888188234CF04AE050E060E82E
S113089070E080E090E00E947B021BCF888190E0B2
S11308A04AE050E060E870E0805891090E947B02C1
S11308B010CF5058BB27AA270E9471040C94C2057C
S11308C00E94B40538F00E94BB0520F039F49F3F24
S11308D019F426F40C94B1050EF4E095E7FB0C949E
S11308E0AB05E92F0E94D30558F3BA1762077307C3
S11308F08407950720F079F4A6F50C94F5050EF419
S1130900E0950B2EBA2FA02D0B01B90190010C011B
S1130910CA01A0011124FF27591B99F0593F50F433
S1130920503E68F11A16F040A22F232F342F44278B
S1130930585FF3CF469537952795A795F040539583
S1130940C9F77EF41F16BA0B620B730B840BBAF053
S11309509150A1F0FF0FBB1F661F771F881FC2F7BE
S11309600EC0BA0F621F731F841F48F487957795D2
S11309706795B795F7959E3F08F0B0CF9395880F8C
S113098008F09927EE0F9795879508950E94DA0449
S11309900C94C2050E94BB0558F00E94B40540F0B7
S11309A029F45F3F29F00C94AB0551110C94F60522
S11309B00C94B1050E94D30568F39923B1F3552330
S11309C091F3951B550BBB27AA276217730784075E
S11309D038F09F5F5F4F220F331F441FAA1FA9F3F4
S11309E035D00E2E3AF0E0E832D091505040E695E2
S11309F0001CCAF72BD0FE2F29D0660F771F881F43
S1130A00BB1F261737074807AB07B0E809F0BB0B35
S1130A10802DBF01FF2793585F4F3AF09E3F510549
S1130A2078F00C94AB050C94F6055F3FE4F3983E24
S1130A30D4F3869577956795B795F7959F5FC9F732
S1130A40880F911D9695879597F90895E1E0660FB3
S1130A50771F881FBB1F621773078407BA0720F02C
S1130A60621B730B840BBA0BEE1F88F7E095089595
S1130A700E943F056894B1110C94F60508950E94F4
S1130A80DB0588F09F5798F0B92F9927B751B0F03C
S1130A90E1F0660F771F881F991F1AF0BA95C9F7FE
S1130AA014C0B13091F00E94F505B1E008950C94A2
S1130AB0F505672F782F8827B85F39F0B93FCCF355
S1130AC0869577956795B395D9F73EF4909580957B
S1130AD0709561957F4F8F4F9F4F0895E89409C09B
S1130AE097FB3EF490958095709561957F4F8F4F5D
S1130AF09F4F9923A9F0F92F96E9BB279395F69573
S1130B00879577956795B795F111F8CFFAF4BB0FF0
S1130B1011F460FF1BC06F5F7F4F8F4F9F4F16C054
S1130B20882311F096E911C0772321F09EE8872FDE
S1130B30762F05C0662371F096E8862F70E060E09A
S1130B402AF09A95660F771F881FDAF7880F969513
S1130B50879597F9089597F99F6780E870E060E0BA
S1130B6008959FEF80EC089500240A941616170642
S1130B7018060906089500240A941216130614068A
S1130B8005060895092E0394000C11F4882352F0ED
S1130B90BB0F40F4BF2B11F460FF04C06F5F7F4FA5
S1130BA08F4F9F4F089557FD9058440F551F59F08C
S1130BB05F3F71F04795880F97FB991F61F09F3F46
S1130BC079F087950895121613061406551FF2CF6F
S1130BD04695F1DF08C0161617061806991FF1CFBF
S1130BE086957105610508940895E894BB276627E6
S1130BF07727CB0197F908950E940F060C94C2053C
S1130C000E94B40538F00E94BB0520F0952311F032
S1130C100C94AB050C94B10511240C94F6050E94B8
S1130C20D30570F3959FC1F3950F50E0551F629F54
S1130C30F001729FBB27F00DB11D639FAA27F00D31
S1130C40B11DAA1F649F6627B00DA11D661F829F58
S1130C502227B00DA11D621F739FB00DA11D621F3D
S1130C60839FA00D611D221F749F3327A00D611D5A
S1130C70231F849F600D211D822F762F6A2F11243C
S1130C809F5750409AF0F1F088234AF0EE0FFF1F6F
S1130C90BB1F661F771F881F91505040A9F79E3FC6
S1130CA0510580F00C94AB050C94F6055F3FE4F31A
S1130CB0983ED4F3869577956795B795F795E7951C
S1130CC09F5FC1F7FE2B880F911D9695879597F925
S1130CD0089597FB072E16F4009407D077FD09D0EA
S1130CE00E94BE0607FC05D03EF4909581959F4F67
S1130CF00895709561957F4F0895A1E21A2EAA1B5D
S1130D00BB1BFD010DC0AA1FBB1FEE1FFF1FA217B7
S1130D10B307E407F50720F0A21BB30BE40BF50BB4
S1130D20661F771F881F991F1A9469F7609570953D
S1130D30809590959B01AC01BD01CF010895052ECE
S1130D4097FB1EF400940E94B60657FD07D00E943C
S1130D507D0607FC03D04EF40C94B60650954095DE
S1130D60309521953F4F4F4F5F4F08959095809553
S1130D70709561957F4F8F4F9F4F0895AA1BBB1BA2
S1130D8051E107C0AA1FBB1FA617B70710F0A61B87
S1130D90B70B881F991F5A95A9F780959095BC01A8
S10B0DA0CD010895F894FFCF82
S1130DA81F1F1F1F1F1F1F001F1E1E1E1E1E1F008A
S1130DB81F1C1C1C1C1C1F001F1C1818181C1F009F
S1130DC81F14101010141F001F04000000041F003B
S1130DD8432020523A004320543A004F4646002507
S1050DE82000E5
S9030000FC
