:100000000C9434000C9451000C9451000C94510049
:100010000C9451000C9451000C9451000C9451001C
:100020000C9451000C9451000C9451000C9451000C
:100030000C9451000C9441020C9451000C9451000A
:100040000C9451000C9451000C9451000C945100EC
:100050000C9451000C9451000C9451000C945100DC
:100060000C9451000C94510011241FBECFEFD8E026
:10007000DEBFCDBF11E0A0E0B1E0EAE0F9E002C0F0
:1000800005900D92A231B107D9F721E0A2E1B1E0CC
:1000900001C01D92AE31B207E1F70E9453020C94E9
:1000A00083040C940000CF93DF9300D000D0CDB731
:1000B000DEB769837A838B839C8389819A81AB8144
:1000C000BC81880F991FAA1FBB1F880F991FAA1FE9
:1000D000BB1F880F991FAA1FBB1F880F991FAA1F3C
:1000E000BB1F89839A83AB83BC8389819A81AB814F
:1000F000BC81892B8A2B8B2B99F089819A81AB81CA
:10010000BC810197A109B10989839A83AB83BC8320
:1001100089819A81AB81BC81892B8A2B8B2B69F7D2
:100120000F900F900F900F90DF91CF9108955B9AF1
:1001300061E070E080E090E00E9453005B980895D9
:10014000882314F45F9A01C05F9886FF02C05E9A0C
:1001500001C05E9885FF02C05D9A01C05D9884FF72
:1001600002C05C9A08955C98089583FF02C05F9A6C
:1001700001C05F9882FF02C05E9A01C05E9881FF55
:1001800002C05D9A01C05D9880FF02C05C9A08952C
:100190005C980895CF93C82F0E94A0000E949700FA
:1001A0008C2F0E94B5000E94970065E070E080E00F
:1001B00090E00E945300CF910895289881E00E941A
:1001C000CA0068EC70E080E090E00E94530008955F
:1001D000289882E00E94CA0068EC70E080E090E01D
:1001E0000E945300089528988C3319F08E3329F01B
:1001F000089580E10E94CA00089584E10E94CA0027
:10020000089528988330A9F028F4813041F0823095
:1002100059F00895843091F08530A9F00895862F23
:1002200080680E94CA000895862F806C0E94CA00D0
:100230000895862F80690E94CA000895862F806DD8
:100240000E94CA000895862F80640E94CA00089503
:1002500028980E94CA000895289A0E94CA0061E066
:1002600070E080E090E00E9453000895CF93DF9308
:10027000EC018881882309F121968A3029F460E015
:1002800082E00E94010116C08D3019F40E94E8003E
:1002900011C0893069F48EE30E94F3008EE30E945E
:1002A000F3008EE30E94F3008EE30E94F30002C08D
:1002B0000E942C0189918111E0CFDF91CF910895A7
:1002C0004F925F926F927F928F929F92AF92BF9266
:1002D000CF92DF92EF92FF924B015C0199235CF485
:1002E0008DE20E942C01B094A09490948094811C83
:1002F000911CA11CB11C8AE088169104A104B104D0
:100300000CF46BC0C12CD12C7601C394CC0CDD1C39
:10031000EE1CFF1CD701C601880F991FAA1FBB1F27
:10032000880F991FAA1FBB1FC80ED91EEA1EFB1EED
:10033000C501B401A70196010E9464042A30310569
:10034000410551051CF780E3820F0E942C01C70173
:10035000B6012AE030E040E050E00E946404690108
:100360007A011216130614061506DCF50F2EFAE0B4
:100370004F2E512C612C712CF02DB701A601440F8A
:10038000551F661F771FDB01CA01880F991FAA1F1F
:10039000BB1F880F991FAA1FBB1F9A01AB01280F13
:1003A000391F4A1F5B1FC501B4010E946404A701E5
:1003B00096010E94640480E3820F0E942C01C70111
:1003C000B601A30192010E94640469017A01121628
:1003D0001306140615068CF204C080E3880D0E94F3
:1003E0002C01FF90EF90DF90CF90BF90AF909F9047
:1003F0008F907F906F905F904F900895289888E23B
:100400000E94A0000E94970065E070E080E090E00C
:100410000E9453000E94970065E070E080E090E049
:100420000E94530088E20E94B5000E94970065E098
:1004300070E080E090E00E9453008CE00E94280170
:1004400086E00E9428010E94DD000E94E8000895D5
:10045000806480937C0085E38A95F1F70000EAE7E9
:10046000F0E0808180648083808184FFFDCFEAE7B3
:10047000F0E08081806180838091780090917900A4
:1004800008951F920F920FB60F9211248F9383E657
:100490008093850080EC809384008F910F900FBE35
:1004A0000F901F9018958FE084B915B817B818B839
:1004B00088EF8AB91BB814BC15BC16BC17BC18BC95
:1004C0001092800082E08093810083E68093850013
:1004D00080EC809384001092870010928600109226
:1004E00089001092880010928B0010928A0010925E
:1004F000B60083E88093B00083E08093B10010924F
:10050000B2008FEF8093B3001092B40010926E008F
:1005100081E080936F001092700087E380937E00EB
:1005200080E480937C0084E880937A0010927B00C2
:100530000E94FE017894C3EBD0E081E00E94280283
:10054000909317018093160180E00E9428029093F7
:1005500015018093140184E00E94280290931301F6
:100560008093120185E00E94280290931B018093E2
:100570001A0160E081E00E94010160911401709114
:100580001501072E000C880B990B0E94600180E07A
:1005900091E00E9436016091120170911301072EC3
:1005A000000C880B990B0E9460018AE091E00E9488
:1005B000360160E082E00E940101609116017091B5
:1005C0001701072E000C880B990B0E94B6032AE036
:1005D00037ED43E251E40E940C030E947E030E9427
:1005E00060018EE091E00E943601809116019091A9
:1005F000170199230CF40396959587959595879502
:100600009093190180931801288130E08217930795
:1006100009F493CF888391CF0E9420030C9408049F
:100620000E94010458F00E94FA0340F029F45F3F51
:1006300029F00C94F10351110C943C040C94F70331
:100640000E94190468F39923B1F3552391F3951B84
:10065000550BBB27AA2762177307840738F09F5FE3
:100660005F4F220F331F441FAA1FA9F335D00E2E50
:100670003AF0E0E832D091505040E695001CCAF7BD
:100680002BD0FE2F29D0660F771F881FBB1F261780
:1006900037074807AB07B0E809F0BB0B802DBF0157
:1006A000FF2793585F4F3AF09E3F510578F00C9426
:1006B000F1030C943C045F3FE4F3983ED4F3869539
:1006C00077956795B795F7959F5FC9F7880F911D47
:1006D0009695879597F90895E1E0660F771F881F33
:1006E000BB1F621773078407BA0720F0621B730BE6
:1006F000840BBA0BEE1F88F7E09508950E948503DE
:100700006894B1110C943C0408950E94210488F06F
:100710009F5798F0B92F9927B751B0F0E1F0660FC5
:10072000771F881F991F1AF0BA95C9F714C0B13006
:1007300091F00E943B04B1E008950C943B04672FB4
:10074000782F8827B85F39F0B93FCCF38695779535
:100750006795B395D9F73EF490958095709561951E
:100760007F4F8F4F9F4F0895E89409C097FB3EF449
:1007700090958095709561957F4F8F4F9F4F9923EE
:10078000A9F0F92F96E9BB279395F695879577956C
:100790006795B795F111F8CFFAF4BB0F11F460FF2C
:1007A0001BC06F5F7F4F8F4F9F4F16C0882311F084
:1007B00096E911C0772321F09EE8872F762F05C098
:1007C000662371F096E8862F70E060E02AF09A9533
:1007D000660F771F881FDAF7880F9695879597F928
:1007E000089597F99F6780E870E060E008959FEFB3
:1007F00080EC089500240A941616170618060906B8
:10080000089500240A941216130614060506089586
:10081000092E0394000C11F4882352F0BB0F40F40E
:10082000BF2B11F460FF04C06F5F7F4F8F4F9F4F4E
:10083000089557FD9058440F551F59F05F3F71F0D0
:100840004795880F97FB991F61F09F3F79F0879537
:100850000895121613061406551FF2CF4695F1DFC0
:1008600008C0161617061806991FF1CF8695710550
:10087000610508940895E894BB2766277727CB0184
:1008800097F90895A1E21A2EAA1BBB1BFD010DC00A
:10089000AA1FBB1FEE1FFF1FA217B307E407F50730
:1008A00020F0A21BB30BE40BF50B661F771F881F0C
:1008B000991F1A9469F760957095809590959B01A2
:1008C000AC01BD01CF010895052E97FB1EF40094E5
:1008D0000E947B0457FD07D00E94420407FC03D00E
:1008E0004EF40C947B0450954095309521953F4FE4
:1008F0004F4F5F4F089590958095709561957F4F0C
:0A0900008F4F9F4F0895F894FFCF2A
:10090A00432020205265616C3A00432020002520B4
:02091A000000DB
:00000001FF
