:0E0000000C9446000C9475000C9400000C94B7
:10000E0000000C9400000C9400000C9400000C9462
:10001E0000000C9400000C9400000C9400000C9452
:10002E0000000C9400000C9476000C9400000C94CC
:10003E0000000C9400000C9400000C9400000C9432
:10004E0000000C9400000C9400000C9400000C9422
:10005E0000000C9400000C9400002020494E4954DE
:10006E00000001002D4E414E00494E46000080C05A
:10007E00010000037000020004037C000000F894ED
:10008E00EE27EFBBF1E0F5BFE5BF8DE0A2E0BB27A9
:10009E00ED938A95E9F780E098E0A0E0B1E0ED936A
:1000AE000197E9F7EEE7F0E085919591009761F001
:1000BE00A591B59105901590BF01F00105900D9297
:1000CE000197E1F7FB01F0CFE0E0EEBBEFEFEDBF04
:1000DE00E8E0EEBFC0E0D3E00C9497001895EA93E9
:1000EE000E94F001E9911895AA93E881E064E093EB
:1000FE007C0085E38A95F1F7E0917A00E064E09365
:10010E007A00E0917A00E071E1F3E0917A00E0612B
:10011E00E0937A00E0917800F09179000C94EE0172
:10012E00E0E8E0936100E0E0E0936100E3E0E4B931
:10013E00E0E0E5B9E7B9E8B9E8EFEAB9E0E0EBB934
:10014E00E4BDE5BDE6BDE7BDE8BDE0938000E2E0BD
:10015E00E09381000E94F001E0E0E0938700E093DD
:10016E008600E0938900E0938800E0938B00E09393
:10017E008A00E093B600E3ECE093B000EDE0E0938C
:10018E00B100E0E0E093B200E093B300E093B4007E
:10019E00E0936E00E1E0E0936F00E0E0E09370002A
:1001AE00E1E0E0936900EDBBECBBE0E0E0936800BA
:1001BE00E093C100E0E8E0BFE0E0E0937F00EFE312
:1001CE00E0937E00E0E4E0937C00E4EAE0937A00C2
:1001DE00E0E0E0937B00ECBDE093BC00A0E10E9468
:1001EE00C1017894E0E0EA93A0E00E946F01A8E6D6
:1001FE00B0E00E94AE01A8EEB3E00E9405020E949C
:10020E007C018BE68A95F1F7A0E06EDF3E2E4F2E35
:10021E004A923A92AB2DBC2D0E942001E0E0EA9367
:10022E00A0E00E946F01AB2DBC2D0E949F01E9CF73
:10023E00FFCFBA93AA93A991B991E991F99130960A
:10024E002AF4E095F09531966DE26D93E89480E195
:10025E0097E20DD088EE93E00AD084E6992707D076
:10026E008AE005D06E2F10D066276C93089566270E
:10027E00E817F90720F06395E81BF90BC9F7662319
:10028E0011F416F008956894605D6D930895AA9325
:10029E00E5B1EF70AE2FE881E07FEA2BE5B98BE197
:1002AE008A95F1F72A9A8BE18A95F1F72A988BE1D4
:1002BE008A95F1F78CC0AA93A881E9DFE881E295CF
:1002CE00E883A881E4DF88EC90E00197F1F77FC026
:1002DE00AA93E881F0E0EC5FFC4FE081A981AE0FBC
:1002EE00EADFE980D88022960895A2E00E94F70105
:1002FE00ACE0E1DFA1E00E94F701E0E0DE2EEE2EA1
:10030E000895AA93A881AA3021F0E0910803EE1671
:10031E0048F0E0E0EA93D394AD2DDADFA881AA305D
:10032E0009F455C0E394289AA881C5DF28984FC0D8
:10033E00BA93AA931A93A981BA81ED91A983BA832C
:10034E001E2FE03019F0A12FDCDFF5CF10C0BA93CD
:10035E00AA931A93E981FA813196E983FA83319748
:10036E00E4911E2FE03019F0A12FCBDFF3CF1881CF
:10037E0023960895AA93E4B1E06FE4B9229A209AE5
:10038E00219A2A9828982998E881E0930803E05842
:10039E00E0930603E881E054E0930703A4E1B0E0A4
:1003AE000E9405020E94FD010E94FD010E94FD01B6
:1003BE00A0E26DDF80E991E00197F1F7A8E27BDF23
:1003CE00A4E079DFA5E877DFA6E075DF8EDF219662
:1003DE000895E3E6E0938500E0ECE0938400089551
:1003EE000E946201A3E0B0E00C940502A0E30E941B
:1003FE004E0180E991E00197F1F70895109639F0DA
:10040E0080EA9FE00197F1F7A8951197C9F7089533
:00000001FF
